{
  "_format": "hh-sol-artifact-1",
  "contractName": "TweetContract",
  "sourceName": "contracts/TwitterContract.sol",
  "abi": [
    {
      "inputs": [
        {
          "internalType": "address",
          "name": "",
          "type": "address"
        },
        {
          "internalType": "uint256",
          "name": "",
          "type": "uint256"
        }
      ],
      "name": "conversations",
      "outputs": [
        {
          "internalType": "uint256",
          "name": "id",
          "type": "uint256"
        },
        {
          "internalType": "string",
          "name": "content",
          "type": "string"
        },
        {
          "internalType": "address",
          "name": "from",
          "type": "address"
        },
        {
          "internalType": "address",
          "name": "to",
          "type": "address"
        },
        {
          "internalType": "uint256",
          "name": "createdAt",
          "type": "uint256"
        }
      ],
      "stateMutability": "view",
      "type": "function"
    },
    {
      "inputs": [
        {
          "internalType": "address",
          "name": "_followed",
          "type": "address"
        }
      ],
      "name": "follow",
      "outputs": [],
      "stateMutability": "nonpayable",
      "type": "function"
    },
    {
      "inputs": [
        {
          "internalType": "address",
          "name": "",
          "type": "address"
        },
        {
          "internalType": "uint256",
          "name": "",
          "type": "uint256"
        }
      ],
      "name": "followers",
      "outputs": [
        {
          "internalType": "address",
          "name": "",
          "type": "address"
        }
      ],
      "stateMutability": "view",
      "type": "function"
    },
    {
      "inputs": [
        {
          "internalType": "address",
          "name": "",
          "type": "address"
        },
        {
          "internalType": "uint256",
          "name": "",
          "type": "uint256"
        }
      ],
      "name": "following",
      "outputs": [
        {
          "internalType": "address",
          "name": "",
          "type": "address"
        }
      ],
      "stateMutability": "view",
      "type": "function"
    },
    {
      "inputs": [
        {
          "internalType": "address",
          "name": "_to",
          "type": "address"
        }
      ],
      "name": "getAllConversation",
      "outputs": [
        {
          "components": [
            {
              "internalType": "uint256",
              "name": "id",
              "type": "uint256"
            },
            {
              "internalType": "string",
              "name": "content",
              "type": "string"
            },
            {
              "internalType": "address",
              "name": "from",
              "type": "address"
            },
            {
              "internalType": "address",
              "name": "to",
              "type": "address"
            },
            {
              "internalType": "uint256",
              "name": "createdAt",
              "type": "uint256"
            }
          ],
          "internalType": "struct TweetContract.Message[]",
          "name": "",
          "type": "tuple[]"
        }
      ],
      "stateMutability": "view",
      "type": "function"
    },
    {
      "inputs": [],
      "name": "getAllFollowers",
      "outputs": [
        {
          "internalType": "address[]",
          "name": "",
          "type": "address[]"
        }
      ],
      "stateMutability": "view",
      "type": "function"
    },
    {
      "inputs": [
        {
          "internalType": "uint256",
          "name": "id",
          "type": "uint256"
        }
      ],
      "name": "getAllLikescnt",
      "outputs": [
        {
          "internalType": "uint256",
          "name": "",
          "type": "uint256"
        }
      ],
      "stateMutability": "view",
      "type": "function"
    },
    {
      "inputs": [],
      "name": "getAllTweets",
      "outputs": [
        {
          "components": [
            {
              "internalType": "uint256",
              "name": "id",
              "type": "uint256"
            },
            {
              "internalType": "address",
              "name": "author",
              "type": "address"
            },
            {
              "internalType": "string",
              "name": "content",
              "type": "string"
            },
            {
              "internalType": "uint256",
              "name": "createdAt",
              "type": "uint256"
            },
            {
              "internalType": "uint256",
              "name": "likes",
              "type": "uint256"
            }
          ],
          "internalType": "struct TweetContract.Tweet[]",
          "name": "",
          "type": "tuple[]"
        }
      ],
      "stateMutability": "view",
      "type": "function"
    },
    {
      "inputs": [],
      "name": "getAllfollowing",
      "outputs": [
        {
          "internalType": "address[]",
          "name": "",
          "type": "address[]"
        }
      ],
      "stateMutability": "view",
      "type": "function"
    },
    {
      "inputs": [
        {
          "internalType": "address",
          "name": "user",
          "type": "address"
        },
        {
          "internalType": "uint256",
          "name": "count",
          "type": "uint256"
        }
      ],
      "name": "getLatestTweetsOfFollowers",
      "outputs": [
        {
          "components": [
            {
              "internalType": "uint256",
              "name": "id",
              "type": "uint256"
            },
            {
              "internalType": "address",
              "name": "author",
              "type": "address"
            },
            {
              "internalType": "string",
              "name": "content",
              "type": "string"
            },
            {
              "internalType": "uint256",
              "name": "createdAt",
              "type": "uint256"
            },
            {
              "internalType": "uint256",
              "name": "likes",
              "type": "uint256"
            }
          ],
          "internalType": "struct TweetContract.Tweet[]",
          "name": "",
          "type": "tuple[]"
        }
      ],
      "stateMutability": "view",
      "type": "function"
    },
    {
      "inputs": [
        {
          "internalType": "address",
          "name": "_user",
          "type": "address"
        },
        {
          "internalType": "uint256",
          "name": "count",
          "type": "uint256"
        }
      ],
      "name": "getLatestofUser",
      "outputs": [
        {
          "components": [
            {
              "internalType": "uint256",
              "name": "id",
              "type": "uint256"
            },
            {
              "internalType": "address",
              "name": "author",
              "type": "address"
            },
            {
              "internalType": "string",
              "name": "content",
              "type": "string"
            },
            {
              "internalType": "uint256",
              "name": "createdAt",
              "type": "uint256"
            },
            {
              "internalType": "uint256",
              "name": "likes",
              "type": "uint256"
            }
          ],
          "internalType": "struct TweetContract.Tweet[]",
          "name": "",
          "type": "tuple[]"
        }
      ],
      "stateMutability": "view",
      "type": "function"
    },
    {
      "inputs": [
        {
          "internalType": "uint256",
          "name": "id",
          "type": "uint256"
        }
      ],
      "name": "increaseLike",
      "outputs": [],
      "stateMutability": "nonpayable",
      "type": "function"
    },
    {
      "inputs": [
        {
          "internalType": "address",
          "name": "",
          "type": "address"
        },
        {
          "internalType": "uint256",
          "name": "",
          "type": "uint256"
        }
      ],
      "name": "isAlreadyLiked",
      "outputs": [
        {
          "internalType": "bool",
          "name": "",
          "type": "bool"
        }
      ],
      "stateMutability": "view",
      "type": "function"
    },
    {
      "inputs": [
        {
          "internalType": "address",
          "name": "",
          "type": "address"
        },
        {
          "internalType": "address",
          "name": "",
          "type": "address"
        }
      ],
      "name": "operators",
      "outputs": [
        {
          "internalType": "bool",
          "name": "",
          "type": "bool"
        }
      ],
      "stateMutability": "view",
      "type": "function"
    },
    {
      "inputs": [
        {
          "internalType": "address",
          "name": "_from",
          "type": "address"
        },
        {
          "internalType": "address",
          "name": "_to",
          "type": "address"
        },
        {
          "internalType": "string",
          "name": "_content",
          "type": "string"
        }
      ],
      "name": "sendMessage",
      "outputs": [],
      "stateMutability": "nonpayable",
      "type": "function"
    },
    {
      "inputs": [
        {
          "internalType": "string",
          "name": "_content",
          "type": "string"
        },
        {
          "internalType": "address",
          "name": "_to",
          "type": "address"
        }
      ],
      "name": "sendMessage",
      "outputs": [],
      "stateMutability": "nonpayable",
      "type": "function"
    },
    {
      "inputs": [
        {
          "internalType": "address",
          "name": "_from",
          "type": "address"
        },
        {
          "internalType": "string",
          "name": "_content",
          "type": "string"
        }
      ],
      "name": "tweet",
      "outputs": [],
      "stateMutability": "nonpayable",
      "type": "function"
    },
    {
      "inputs": [
        {
          "internalType": "string",
          "name": "_content",
          "type": "string"
        }
      ],
      "name": "tweet",
      "outputs": [],
      "stateMutability": "nonpayable",
      "type": "function"
    },
    {
      "inputs": [
        {
          "internalType": "uint256",
          "name": "",
          "type": "uint256"
        }
      ],
      "name": "tweets",
      "outputs": [
        {
          "internalType": "uint256",
          "name": "id",
          "type": "uint256"
        },
        {
          "internalType": "address",
          "name": "author",
          "type": "address"
        },
        {
          "internalType": "string",
          "name": "content",
          "type": "string"
        },
        {
          "internalType": "uint256",
          "name": "createdAt",
          "type": "uint256"
        },
        {
          "internalType": "uint256",
          "name": "likes",
          "type": "uint256"
        }
      ],
      "stateMutability": "view",
      "type": "function"
    },
    {
      "inputs": [
        {
          "internalType": "address",
          "name": "",
          "type": "address"
        },
        {
          "internalType": "uint256",
          "name": "",
          "type": "uint256"
        }
      ],
      "name": "tweetsOf",
      "outputs": [
        {
          "internalType": "uint256",
          "name": "",
          "type": "uint256"
        }
      ],
      "stateMutability": "view",
      "type": "function"
    }
  ],
  "bytecode": "0x608060405234801561001057600080fd5b50612c54806100206000396000f3fe608060405234801561001057600080fd5b50600436106101375760003560e01c8063af22bf94116100b8578063c8662fa41161007c578063c8662fa414610388578063d21d1596146103b8578063e8d857b0146103d4578063ebd009d314610408578063fb46d4c514610438578063ff9913e81461045457610137565b8063af22bf94146102d2578063b88e318d14610302578063bd4af50e1461031e578063c365e4211461034e578063c48d6d5e1461036c57610137565b80634dc0a687116100ff5780634dc0a687146102085780635284b64a14610238578063580c093b146102685780639139cda514610286578063a9ed9cb8146102b657610137565b8063257fb3ce1461013c5780632637588e1461016c57806326f14f4e1461019c5780633befea09146101b85780634dbf27cc146101ec575b600080fd5b6101566004803603810190610151919061208e565b610470565b60405161016391906126e0565b60405180910390f35b61018660048036038101906101819190611f97565b61049f565b60405161019391906126e0565b60405180910390f35b6101b660048036038101906101b1919061215f565b6104ce565b005b6101d260048036038101906101cd919061208e565b610608565b6040516101e3959493929190612830565b60405180910390f35b61020660048036038101906102019190611f6e565b610723565b005b610222600480360381019061021d919061215f565b610a5d565b60405161022f91906126be565b60405180910390f35b610252600480360381019061024d919061208e565b610cce565b60405161025f91906126be565b60405180910390f35b610270611010565b60405161027d919061267a565b60405180910390f35b6102a0600480360381019061029b919061208e565b6110db565b6040516102ad919061265f565b60405180910390f35b6102d060048036038101906102cb9190611f6e565b611129565b005b6102ec60048036038101906102e7919061208e565b6111c1565b6040516102f991906127bb565b60405180910390f35b61031c60048036038101906103179190611fd3565b6111f2565b005b61033860048036038101906103339190611f6e565b611202565b604051610345919061269c565b60405180910390f35b61035661142f565b604051610363919061267a565b60405180910390f35b6103866004803603810190610381919061210b565b6114fa565b005b6103a2600480360381019061039d919061215f565b611509565b6040516103af91906127bb565b60405180910390f35b6103d260048036038101906103cd919061203a565b611529565b005b6103ee60048036038101906103e9919061215f565b611537565b6040516103ff9594939291906127d6565b60405180910390f35b610422600480360381019061041d919061208e565b611615565b60405161042f919061265f565b60405180910390f35b610452600480360381019061044d91906120ca565b611663565b005b61046e60048036038101906104699190611f6e565b611670565b005b60006020528160005260406000206020528060005260406000206000915091509054906101000a900460ff1681565b60056020528160005260406000206020528060005260406000206000915091509054906101000a900460ff1681565b600015156000803373ffffffffffffffffffffffffffffffffffffffff1673ffffffffffffffffffffffffffffffffffffffff168152602001908152602001600020600083815260200190815260200160002060009054906101000a900460ff16151514610571576040517f08c379a00000000000000000000000000000000000000000000000000000000081526004016105689061273b565b60405180910390fd5b60016000803373ffffffffffffffffffffffffffffffffffffffff1673ffffffffffffffffffffffffffffffffffffffff168152602001908152602001600020600083815260200190815260200160002060006101000a81548160ff02191690831515021790555060016000828152602001908152602001600020600401600081548092919061060090612b09565b919050555050565b6003602052816000526040600020818154811061062457600080fd5b90600052602060002090600502016000915091505080600001549080600101805461064e90612ad7565b80601f016020809104026020016040519081016040528092919081815260200182805461067a90612ad7565b80156106c75780601f1061069c576101008083540402835291602001916106c7565b820191906000526020600020905b8154815290600101906020018083116106aa57829003601f168201915b5050505050908060020160009054906101000a900473ffffffffffffffffffffffffffffffffffffffff16908060030160009054906101000a900473ffffffffffffffffffffffffffffffffffffffff16908060040154905085565b8073ffffffffffffffffffffffffffffffffffffffff163373ffffffffffffffffffffffffffffffffffffffff161415610792576040517f08c379a00000000000000000000000000000000000000000000000000000000081526004016107899061277b565b60405180910390fd5b600080600090505b600660003373ffffffffffffffffffffffffffffffffffffffff1673ffffffffffffffffffffffffffffffffffffffff168152602001908152602001600020805490508110156108d1578273ffffffffffffffffffffffffffffffffffffffff16600660003373ffffffffffffffffffffffffffffffffffffffff1673ffffffffffffffffffffffffffffffffffffffff1681526020019081526020016000208281548110610872577f4e487b7100000000000000000000000000000000000000000000000000000000600052603260045260246000fd5b9060005260206000200160009054906101000a900473ffffffffffffffffffffffffffffffffffffffff1673ffffffffffffffffffffffffffffffffffffffff1614156108be57600191505b80806108c990612b09565b91505061079a565b506000151581151514610919576040517f08c379a00000000000000000000000000000000000000000000000000000000081526004016109109061275b565b60405180910390fd5b600660003373ffffffffffffffffffffffffffffffffffffffff1673ffffffffffffffffffffffffffffffffffffffff168152602001908152602001600020829080600181540180825580915050600190039060005260206000200160009091909190916101000a81548173ffffffffffffffffffffffffffffffffffffffff021916908373ffffffffffffffffffffffffffffffffffffffff160217905550600760008373ffffffffffffffffffffffffffffffffffffffff1673ffffffffffffffffffffffffffffffffffffffff168152602001908152602001600020339080600181540180825580915050600190039060005260206000200160009091909190916101000a81548173ffffffffffffffffffffffffffffffffffffffff021916908373ffffffffffffffffffffffffffffffffffffffff1602179055505050565b6060600082118015610a7157506008548211155b610ab0576040517f08c379a0000000000000000000000000000000000000000000000000000000008152600401610aa79061279b565b60405180910390fd5b60008267ffffffffffffffff811115610af2577f4e487b7100000000000000000000000000000000000000000000000000000000600052604160045260246000fd5b604051908082528060200260200182016040528015610b2b57816020015b610b18611df4565b815260200190600190039081610b105790505b50905060008084600854610b3f9190612a19565b90505b600854811015610cc35760006001600083815260200190815260200160002090506040518060a00160405280826000015481526020018260010160009054906101000a900473ffffffffffffffffffffffffffffffffffffffff1673ffffffffffffffffffffffffffffffffffffffff168152602001826002018054610bc790612ad7565b80601f0160208091040260200160405190810160405280929190818152602001828054610bf390612ad7565b8015610c405780601f10610c1557610100808354040283529160200191610c40565b820191906000526020600020905b815481529060010190602001808311610c2357829003601f168201915b50505050508152602001826003015481526020018260040154815250848481518110610c95577f4e487b7100000000000000000000000000000000000000000000000000000000600052603260045260246000fd5b6020026020010181905250600183610cad91906129c3565b9250508080610cbb90612b09565b915050610b42565b508192505050919050565b606060008267ffffffffffffffff811115610d12577f4e487b7100000000000000000000000000000000000000000000000000000000600052604160045260246000fd5b604051908082528060200260200182016040528015610d4b57816020015b610d38611df4565b815260200190600190039081610d305790505b5090506000600260008673ffffffffffffffffffffffffffffffffffffffff1673ffffffffffffffffffffffffffffffffffffffff168152602001908152602001600020805480602002602001604051908101604052809291908181526020018280548015610dd957602002820191906000526020600020905b815481526020019060010190808311610dc5575b50505050509050600084118015610df1575080518411155b610e30576040517f08c379a0000000000000000000000000000000000000000000000000000000008152600401610e279061271b565b60405180910390fd5b600080858351610e409190612a19565b90505b825181101561100357600060016000858481518110610e8b577f4e487b7100000000000000000000000000000000000000000000000000000000600052603260045260246000fd5b6020026020010151815260200190815260200160002090506040518060a00160405280826000015481526020018260010160009054906101000a900473ffffffffffffffffffffffffffffffffffffffff1673ffffffffffffffffffffffffffffffffffffffff168152602001826002018054610f0790612ad7565b80601f0160208091040260200160405190810160405280929190818152602001828054610f3390612ad7565b8015610f805780601f10610f5557610100808354040283529160200191610f80565b820191906000526020600020905b815481529060010190602001808311610f6357829003601f168201915b50505050508152602001826003015481526020018260040154815250858481518110610fd5577f4e487b7100000000000000000000000000000000000000000000000000000000600052603260045260246000fd5b6020026020010181905250600183610fed91906129c3565b9250508080610ffb90612b09565b915050610e43565b5082935050505092915050565b6060600660003373ffffffffffffffffffffffffffffffffffffffff1673ffffffffffffffffffffffffffffffffffffffff1681526020019081526020016000208054806020026020016040519081016040528092919081815260200182805480156110d157602002820191906000526020600020905b8160009054906101000a900473ffffffffffffffffffffffffffffffffffffffff1673ffffffffffffffffffffffffffffffffffffffff1681526020019060010190808311611087575b5050505050905090565b600660205281600052604060002081815481106110f757600080fd5b906000526020600020016000915091509054906101000a900473ffffffffffffffffffffffffffffffffffffffff1681565b6000600560003373ffffffffffffffffffffffffffffffffffffffff1673ffffffffffffffffffffffffffffffffffffffff16815260200190815260200160002060008373ffffffffffffffffffffffffffffffffffffffff1673ffffffffffffffffffffffffffffffffffffffff16815260200190815260200160002060006101000a81548160ff02191690831515021790555050565b600260205281600052604060002081815481106111dd57600080fd5b90600052602060002001600091509150505481565b6111fd838383611708565b505050565b6060600460003373ffffffffffffffffffffffffffffffffffffffff1673ffffffffffffffffffffffffffffffffffffffff16815260200190815260200160002060008373ffffffffffffffffffffffffffffffffffffffff1673ffffffffffffffffffffffffffffffffffffffff168152602001908152602001600020805480602002602001604051908101604052809291908181526020016000905b8282101561142457838290600052602060002090600502016040518060a0016040529081600082015481526020016001820180546112dd90612ad7565b80601f016020809104026020016040519081016040528092919081815260200182805461130990612ad7565b80156113565780601f1061132b57610100808354040283529160200191611356565b820191906000526020600020905b81548152906001019060200180831161133957829003601f168201915b505050505081526020016002820160009054906101000a900473ffffffffffffffffffffffffffffffffffffffff1673ffffffffffffffffffffffffffffffffffffffff1673ffffffffffffffffffffffffffffffffffffffff1681526020016003820160009054906101000a900473ffffffffffffffffffffffffffffffffffffffff1673ffffffffffffffffffffffffffffffffffffffff1673ffffffffffffffffffffffffffffffffffffffff168152602001600482015481525050815260200190600101906112a0565b505050509050919050565b6060600760003373ffffffffffffffffffffffffffffffffffffffff1673ffffffffffffffffffffffffffffffffffffffff1681526020019081526020016000208054806020026020016040519081016040528092919081815260200182805480156114f057602002820191906000526020600020905b8160009054906101000a900473ffffffffffffffffffffffffffffffffffffffff1673ffffffffffffffffffffffffffffffffffffffff16815260200190600101908083116114a6575b5050505050905090565b611505338284611708565b5050565b600060016000838152602001908152602001600020600401549050919050565b6115338282611b9a565b5050565b60016020528060005260406000206000915090508060000154908060010160009054906101000a900473ffffffffffffffffffffffffffffffffffffffff169080600201805461158690612ad7565b80601f01602080910402602001604051908101604052809291908181526020018280546115b290612ad7565b80156115ff5780601f106115d4576101008083540402835291602001916115ff565b820191906000526020600020905b8154815290600101906020018083116115e257829003601f168201915b5050505050908060030154908060040154905085565b6007602052816000526040600020818154811061163157600080fd5b906000526020600020016000915091509054906101000a900473ffffffffffffffffffffffffffffffffffffffff1681565b61166d3382611b9a565b50565b6001600560003373ffffffffffffffffffffffffffffffffffffffff1673ffffffffffffffffffffffffffffffffffffffff16815260200190815260200160002060008373ffffffffffffffffffffffffffffffffffffffff1673ffffffffffffffffffffffffffffffffffffffff16815260200190815260200160002060006101000a81548160ff02191690831515021790555050565b3373ffffffffffffffffffffffffffffffffffffffff168373ffffffffffffffffffffffffffffffffffffffff1614806117c85750600560008473ffffffffffffffffffffffffffffffffffffffff1673ffffffffffffffffffffffffffffffffffffffff16815260200190815260200160002060003373ffffffffffffffffffffffffffffffffffffffff1673ffffffffffffffffffffffffffffffffffffffff16815260200190815260200160002060009054906101000a900460ff165b611807576040517f08c379a00000000000000000000000000000000000000000000000000000000081526004016117fe906126fb565b60405180910390fd5b600460008473ffffffffffffffffffffffffffffffffffffffff1673ffffffffffffffffffffffffffffffffffffffff16815260200190815260200160002060008373ffffffffffffffffffffffffffffffffffffffff1673ffffffffffffffffffffffffffffffffffffffff1681526020019081526020016000206040518060a0016040528060095481526020018381526020018573ffffffffffffffffffffffffffffffffffffffff1681526020018473ffffffffffffffffffffffffffffffffffffffff168152602001428152509080600181540180825580915050600190039060005260206000209060050201600090919091909150600082015181600001556020820151816001019080519060200190611927929190611e39565b5060408201518160020160006101000a81548173ffffffffffffffffffffffffffffffffffffffff021916908373ffffffffffffffffffffffffffffffffffffffff16021790555060608201518160030160006101000a81548173ffffffffffffffffffffffffffffffffffffffff021916908373ffffffffffffffffffffffffffffffffffffffff160217905550608082015181600401555050600460008373ffffffffffffffffffffffffffffffffffffffff1673ffffffffffffffffffffffffffffffffffffffff16815260200190815260200160002060008473ffffffffffffffffffffffffffffffffffffffff1673ffffffffffffffffffffffffffffffffffffffff1681526020019081526020016000206040518060a0016040528060095481526020018381526020018573ffffffffffffffffffffffffffffffffffffffff1681526020018473ffffffffffffffffffffffffffffffffffffffff168152602001428152509080600181540180825580915050600190039060005260206000209060050201600090919091909150600082015181600001556020820151816001019080519060200190611ae2929190611e39565b5060408201518160020160006101000a81548173ffffffffffffffffffffffffffffffffffffffff021916908373ffffffffffffffffffffffffffffffffffffffff16021790555060608201518160030160006101000a81548173ffffffffffffffffffffffffffffffffffffffff021916908373ffffffffffffffffffffffffffffffffffffffff16021790555060808201518160040155505060096000815480929190611b9090612b09565b9190505550505050565b3373ffffffffffffffffffffffffffffffffffffffff168273ffffffffffffffffffffffffffffffffffffffff161480611c5a5750600560008373ffffffffffffffffffffffffffffffffffffffff1673ffffffffffffffffffffffffffffffffffffffff16815260200190815260200160002060003373ffffffffffffffffffffffffffffffffffffffff1673ffffffffffffffffffffffffffffffffffffffff16815260200190815260200160002060009054906101000a900460ff165b611c99576040517f08c379a0000000000000000000000000000000000000000000000000000000008152600401611c90906126fb565b60405180910390fd5b6040518060a0016040528060085481526020018373ffffffffffffffffffffffffffffffffffffffff16815260200182815260200142815260200160008152506001600060085481526020019081526020016000206000820151816000015560208201518160010160006101000a81548173ffffffffffffffffffffffffffffffffffffffff021916908373ffffffffffffffffffffffffffffffffffffffff1602179055506040820151816002019080519060200190611d5b929190611e39565b506060820151816003015560808201518160040155905050600260008373ffffffffffffffffffffffffffffffffffffffff1673ffffffffffffffffffffffffffffffffffffffff16815260200190815260200160002060085490806001815401808255809150506001900390600052602060002001600090919091909150556001600854611dea91906129c3565b6008819055505050565b6040518060a0016040528060008152602001600073ffffffffffffffffffffffffffffffffffffffff1681526020016060815260200160008152602001600081525090565b828054611e4590612ad7565b90600052602060002090601f016020900481019282611e675760008555611eae565b82601f10611e8057805160ff1916838001178555611eae565b82800160010185558215611eae579182015b82811115611ead578251825591602001919060010190611e92565b5b509050611ebb9190611ebf565b5090565b5b80821115611ed8576000816000905550600101611ec0565b5090565b6000611eef611eea846128bb565b61288a565b905082815260208101848484011115611f0757600080fd5b611f12848285612a95565b509392505050565b600081359050611f2981612bf0565b92915050565b600082601f830112611f4057600080fd5b8135611f50848260208601611edc565b91505092915050565b600081359050611f6881612c07565b92915050565b600060208284031215611f8057600080fd5b6000611f8e84828501611f1a565b91505092915050565b60008060408385031215611faa57600080fd5b6000611fb885828601611f1a565b9250506020611fc985828601611f1a565b9150509250929050565b600080600060608486031215611fe857600080fd5b6000611ff686828701611f1a565b935050602061200786828701611f1a565b925050604084013567ffffffffffffffff81111561202457600080fd5b61203086828701611f2f565b9150509250925092565b6000806040838503121561204d57600080fd5b600061205b85828601611f1a565b925050602083013567ffffffffffffffff81111561207857600080fd5b61208485828601611f2f565b9150509250929050565b600080604083850312156120a157600080fd5b60006120af85828601611f1a565b92505060206120c085828601611f59565b9150509250929050565b6000602082840312156120dc57600080fd5b600082013567ffffffffffffffff8111156120f657600080fd5b61210284828501611f2f565b91505092915050565b6000806040838503121561211e57600080fd5b600083013567ffffffffffffffff81111561213857600080fd5b61214485828601611f2f565b925050602061215585828601611f1a565b9150509250929050565b60006020828403121561217157600080fd5b600061217f84828501611f59565b91505092915050565b600061219483836121c8565b60208301905092915050565b60006121ac8383612555565b905092915050565b60006121c083836125cb565b905092915050565b6121d181612a4d565b82525050565b6121e081612a4d565b82525050565b60006121f18261291b565b6121fb818561296e565b9350612206836128eb565b8060005b8381101561223757815161221e8882612188565b975061222983612947565b92505060018101905061220a565b5085935050505092915050565b600061224f82612926565b612259818561297f565b93508360208202850161226b856128fb565b8060005b858110156122a7578484038952815161228885826121a0565b945061229383612954565b925060208a0199505060018101905061226f565b50829750879550505050505092915050565b60006122c482612931565b6122ce8185612990565b9350836020820285016122e08561290b565b8060005b8581101561231c57848403895281516122fd85826121b4565b945061230883612961565b925060208a019950506001810190506122e4565b50829750879550505050505092915050565b61233781612a5f565b82525050565b60006123488261293c565b61235281856129a1565b9350612362818560208601612aa4565b61236b81612bdf565b840191505092915050565b60006123818261293c565b61238b81856129b2565b935061239b818560208601612aa4565b6123a481612bdf565b840191505092915050565b60006123bc6015836129b2565b91507f596f7520646f6e277420686176652061636365737300000000000000000000006000830152602082019050919050565b60006123fc6014836129b2565b91507f436f756e74206973206e6f7420646566696e65640000000000000000000000006000830152602082019050919050565b600061243c6012836129b2565b91507f5573657220616c7265616479206c696b656400000000000000000000000000006000830152602082019050919050565b600061247c6023836129b2565b91507f596f75206861766520616c726561647920666f6c6c6f7765642074686174207560008301527f73657200000000000000000000000000000000000000000000000000000000006020830152604082019050919050565b60006124e26019836129b2565b91507f596f752063616e277420666f6c6f6c7720796f757273656c66000000000000006000830152602082019050919050565b60006125226013836129b2565b91507f436f756e74206973206e6f742070726f706572000000000000000000000000006000830152602082019050919050565b600060a08301600083015161256d6000860182612641565b5060208301518482036020860152612585828261233d565b915050604083015161259a60408601826121c8565b5060608301516125ad60608601826121c8565b5060808301516125c06080860182612641565b508091505092915050565b600060a0830160008301516125e36000860182612641565b5060208301516125f660208601826121c8565b506040830151848203604086015261260e828261233d565b91505060608301516126236060860182612641565b5060808301516126366080860182612641565b508091505092915050565b61264a81612a8b565b82525050565b61265981612a8b565b82525050565b600060208201905061267460008301846121d7565b92915050565b6000602082019050818103600083015261269481846121e6565b905092915050565b600060208201905081810360008301526126b68184612244565b905092915050565b600060208201905081810360008301526126d881846122b9565b905092915050565b60006020820190506126f5600083018461232e565b92915050565b60006020820190508181036000830152612714816123af565b9050919050565b60006020820190508181036000830152612734816123ef565b9050919050565b600060208201905081810360008301526127548161242f565b9050919050565b600060208201905081810360008301526127748161246f565b9050919050565b60006020820190508181036000830152612794816124d5565b9050919050565b600060208201905081810360008301526127b481612515565b9050919050565b60006020820190506127d06000830184612650565b92915050565b600060a0820190506127eb6000830188612650565b6127f860208301876121d7565b818103604083015261280a8186612376565b90506128196060830185612650565b6128266080830184612650565b9695505050505050565b600060a0820190506128456000830188612650565b81810360208301526128578187612376565b905061286660408301866121d7565b61287360608301856121d7565b6128806080830184612650565b9695505050505050565b6000604051905081810181811067ffffffffffffffff821117156128b1576128b0612bb0565b5b8060405250919050565b600067ffffffffffffffff8211156128d6576128d5612bb0565b5b601f19601f8301169050602081019050919050565b6000819050602082019050919050565b6000819050602082019050919050565b6000819050602082019050919050565b600081519050919050565b600081519050919050565b600081519050919050565b600081519050919050565b6000602082019050919050565b6000602082019050919050565b6000602082019050919050565b600082825260208201905092915050565b600082825260208201905092915050565b600082825260208201905092915050565b600082825260208201905092915050565b600082825260208201905092915050565b60006129ce82612a8b565b91506129d983612a8b565b9250827fffffffffffffffffffffffffffffffffffffffffffffffffffffffffffffffff03821115612a0e57612a0d612b52565b5b828201905092915050565b6000612a2482612a8b565b9150612a2f83612a8b565b925082821015612a4257612a41612b52565b5b828203905092915050565b6000612a5882612a6b565b9050919050565b60008115159050919050565b600073ffffffffffffffffffffffffffffffffffffffff82169050919050565b6000819050919050565b82818337600083830152505050565b60005b83811015612ac2578082015181840152602081019050612aa7565b83811115612ad1576000848401525b50505050565b60006002820490506001821680612aef57607f821691505b60208210811415612b0357612b02612b81565b5b50919050565b6000612b1482612a8b565b91507fffffffffffffffffffffffffffffffffffffffffffffffffffffffffffffffff821415612b4757612b46612b52565b5b600182019050919050565b7f4e487b7100000000000000000000000000000000000000000000000000000000600052601160045260246000fd5b7f4e487b7100000000000000000000000000000000000000000000000000000000600052602260045260246000fd5b7f4e487b7100000000000000000000000000000000000000000000000000000000600052604160045260246000fd5b6000601f19601f8301169050919050565b612bf981612a4d565b8114612c0457600080fd5b50565b612c1081612a8b565b8114612c1b57600080fd5b5056fea264697066735822122074daf79eed17130d5e88e528a2b92d156d28b18751cebf258dbafe06a756cab864736f6c63430008000033",
  "linkReferences": {},
  "deployedLinkReferences": {}
}